:020000040000FA
:10000000700200106901000071010000730100001E
:100010007501000077010000790100000000000078
:100020000000000000000000000000007B01000054
:100030007D010000000000007F0100008101000040
:1000400083010000830100008301000083010000A0
:100050008301000083010000830100008301000090
:100060008301000083010000830100008301000080
:100070008301000083010000830100008301000070
:100080008301000083010000830100008301000060
:100090008301000083010000830100008301000050
:1000A0008301000083010000830100008301000040
:1000B0008301000083010000830100008301000030
:1000C00083010000830100008301000000F002F8BA
:1000D00000F03AF80AA090E8000C82448344AAF1A8
:1000E0000107DA4501D100F02FF8AFF2090EBAE8A6
:1000F0000F0013F0010F18BFFB1A43F0010318475C
:10010000B0040000D0040000103A24BF78C878C1C1
:10011000FAD8520724BF30C830C144BF04680C600D
:10012000704700000023002400250026103A28BF55
:1001300078C1FBD8520728BF30C148BF0B60704759
:100140001FB51FBD10B510BD00F0FDF91146FFF73A
:10015000F7FF00F027F800F01BFA03B4FFF7F2FFF7
:1001600003BC00F01FFA0000094880470948004717
:10017000FEE7FEE7FEE7FEE7FEE7FEE7FEE7FEE757
:10018000FEE7FEE704480549034A054B70470000B7
:10019000A9040000CD0000007000001070020010E3
:1001A0007000001000F080F900F0AAF81248006812
:1001B00012490840104908601148006840F47F6007
:1001C0000F49086017E000200E49086004E00D4860
:1001D0000068401C0B4908600A48006841F6583125
:1001E0008842F4D308480068054948610648006819
:1001F000401C05490860E6E700C00240FF0000FF20
:1002000000C009200C0000100400001053EA020C8A
:1002100000F069802DE9F04B4FF00006002B1FBF66
:10022000B3FA83F503FA05F424FA05F65E4012BF2B
:100230001643B2FA82F502FA05F4C5F120051EBF95
:1002400022FA05FC44EA0C04203556EA044C4FEA35
:10025000144418BF641C4FF000084FF0000990428E
:1002600071EB030C39D3002919BFB1FA81F701FAF8
:1002700007F6B0FA80F700FA07F6C7F120071EBFAD
:1002800020FA07FC46EA0C062037B6FBF4FCA7EB85
:100290000507103F07F01F0BCBF120060CFA0BFBF4
:1002A0002CFA06F644BFB3460026202FA4BF5E46B4
:1002B0004FF0000B5BEA060C08BF4FF0010B19EB87
:1002C0000B09ABFB027C48EB0608C01B06FB02CC0B
:1002D0000BFB03CC71EB0C01C1E70B460246414618
:1002E0004846BDE8F08B13B54FF000004FF0000119
:1002F000AFF30080BDE81C4070477047FFFFFFFF71
:100300002DE9F04781480068C0F3016003287CD1E3
:100310007F48006810F0030006D0012833D002287F
:100320005FD003282ED100E000BF78480068C0F3FA
:10033000074000F101044FF002017648D0F8880030
:10034000C0F30E0000F10100A1FB0001724B4FF061
:10035000000CA0FB037901FB039100FB0C1122466A
:1003600063463846FFF752FF05466C480068C0B246
:1003700000F1010422464FF000032846FFF746FF34
:10038000674908605DE061480068C0F3074000F11C
:1003900001044FF002015F48D0F88800C0F30E005E
:1003A00000F10100A1FB00105E4A4FF0000CA1FB20
:1003B000027900FB029001FB0C012246634638469D
:1003C000FFF724FF054655480068C0B200F101045C
:1003D00022464FF000032846FFF718FF50490860F7
:1003E0002FE04A480068C0F3074000F101044FF0D5
:1003F00002014848D0F88800C0F30E0000F1010067
:10040000A1FB00124FF4004000E01BE04FF000039E
:10041000A1FB007902FB009001FB03012246384654
:10042000FFF7F4FE05463D480068C0B200F1010444
:1004300022464FF000032846FFF7E8FE38490860DF
:1004400000BF2FE03248006810F0030006D00128FA
:1004500010D0022819D0032823D100E000BF2F4874
:100460000068C0B200F101002B49B1FBF0F02C494B
:10047000086016E029480068C0B200F1010029496F
:10048000B1FBF0F0264908600BE024480068C0B2D8
:1004900000F101004FF40041B1FBF0F02049086089
:1004A00000BF00BFBDE8F08720201F490860194841
:1004B000D0F8A00110F0200F05D000BF1A48006846
:1004C00010F0400FFAD00320144908601748114972
:1004D000C1F8A8011648174908604FF001000C49FF
:1004E00008604FF00400A1F10401086012481349AC
:1004F000086040F201100749C1F8C80108460068C9
:1005000020F4704040F480400860704788C00F407D
:100510000CC10F4000C00F4000093D0004C10F4056
:1005200000000010001BB700A0C10F4055515155ED
:1005300055545554ACC10F40DEF7EFEFC4C00F4027
:10054000704770477047754600F028F8AE460500C2
:100550006946534620F00700854618B020B5FFF7DE
:1005600011FEBDE820404FF000064FF000074FF0AD
:1005700000084FF0000B21F00701AC46ACE8C009C1
:10058000ACE8C009ACE8C009ACE8C0098D467047CA
:100590000446AFF300802046FFF7DFFD00487047B8
:1005A0001000001001491820ABBEFEE72600020033
:1005B000D00500000000001010000000080100003D
:1005C000E00500001000001060020000240100009F
:1005D000C0C62D0000000000100000000000000058
:04000005000001698D
:00000001FF
