:020000040000FA
:10000000C0020010690100007101000073010000CE
:100010007501000077010000790100000000000078
:100020000000000000000000000000007B01000054
:100030007D010000000000007F0100008101000040
:1000400083010000830100008301000083010000A0
:100050008301000083010000830100008301000090
:100060008301000083010000830100008301000080
:100070008301000083010000830100008301000070
:100080008301000083010000830100008301000060
:100090008301000083010000830100008301000050
:1000A0008301000083010000830100008301000040
:1000B0008301000083010000830100008301000030
:1000C00083010000830100008301000000F002F8BA
:1000D00000F03AF80AA090E8000C82448344AAF1A8
:1000E0000107DA4501D100F02FF8AFF2090EBAE8A6
:1000F0000F0013F0010F18BFFB1A43F0010318475C
:100100001407000034070000103A24BF78C878C1F3
:10011000FAD8520724BF30C830C144BF04680C600D
:10012000704700000023002400250026103A28BF55
:1001300078C1FBD8520728BF30C148BF0B60704759
:100140001FB51FBD10B510BD00F0A6F81146FFF792
:10015000F7FF00F0F5F900F0C4F803B4FFF7F2FF81
:1001600003BC00F051FB00000948804709480047E4
:10017000FEE7FEE7FEE7FEE7FEE7FEE7FEE7FEE757
:10018000FEE7FEE704480549034A054B70470000B7
:10019000A9040000CD000000C0000010C002001043
:1001A000C000001053EA020C00F069802DE9F04B0A
:1001B0004FF00006002B1FBFB3FA83F503FA05F4D6
:1001C00024FA05F65E4012BF1643B2FA82F502FA2F
:1001D00005F4C5F120051EBF22FA05FC44EA0C0413
:1001E000203556EA044C4FEA144418BF641C4FF003
:1001F00000084FF00009904271EB030C39D300293D
:1002000019BFB1FA81F701FA07F6B0FA80F700FAE0
:1002100007F6C7F120071EBF20FA07FC46EA0C06C6
:100220002037B6FBF4FCA7EB0507103F07F01F0BC8
:10023000CBF120060CFA0BFB2CFA06F644BFB346B2
:100240000026202FA4BF5E464FF0000B5BEA060C91
:1002500008BF4FF0010B19EB0B09ABFB027C48EB1D
:100260000608C01B06FB02CC0BFB03CC71EB0C0198
:10027000C1E70B46024641464846BDE8F08B13B540
:100280004FF000004FF00001AFF30080BDE81C40CC
:100290007047704770477047754600F029F8AE46C2
:1002A00005006946534620F00700854618B020B582
:1002B000FFF768FFBDE820404FF000064FF0000751
:1002C0004FF000084FF0000B21F00701AC46ACE8FE
:1002D000C009ACE8C009ACE8C009ACE8C0098D466B
:1002E00070470446AFF300802046FFF736FF00005A
:1002F000004870476000001070470000FFFFFFFFDC
:100300002DE9F04782480068C0F3016003287CD1E2
:100310008048006810F0030006D0012833D002287E
:100320005FD003282ED100E000BF79480068C0F3F9
:10033000074000F101044FF002017748D0F888002F
:10034000C0F30E0000F10100A1FB0001734B4FF060
:10035000000CA0FB037901FB039100FB0C1122466A
:1003600063463846FFF71EFF05466D480068C0B279
:1003700000F1010422464FF000032846FFF712FF68
:10038000684908605DE062480068C0F3074000F11A
:1003900001044FF002016048D0F88800C0F30E005D
:1003A00000F10100A1FB00105F4A4FF0000CA1FB1F
:1003B000027900FB029001FB0C012246634638469D
:1003C000FFF7F0FE054656480068C0B200F1010490
:1003D00022464FF000032846FFF7E4FE514908602B
:1003E0002FE04B480068C0F3074000F101044FF0D4
:1003F00002014948D0F88800C0F30E0000F1010066
:10040000A1FB00124FF4004000E01BE04FF000039E
:10041000A1FB007902FB009001FB03012246384654
:10042000FFF7C0FE05463E480068C0B200F1010477
:1004300022464FF000032846FFF7B4FE3949086012
:1004400000BF2FE03348006810F0030006D00128F9
:1004500010D0022819D0032823D100E000BF304873
:100460000068C0B200F101002C49B1FBF0F02D4949
:10047000086016E02A480068C0B200F101002A496D
:10048000B1FBF0F0274908600BE025480068C0B2D6
:1004900000F101004FF40041B1FBF0F02149086088
:1004A00000BF00BFBDE8F0872020204908601A483F
:1004B000D0F8A00110F0200F05D000BF1B48006845
:1004C00010F0400FFAD0032015490860184812496F
:1004D000C1F8A8014FF00000164908604FF0010074
:1004E0000C4908604FF00400A1F1040108601248B3
:1004F000124908604FF000000749C1F8C8010846DA
:10050000006820F4704040F48040086070470000AC
:1005100088C00F400CC10F4000C00F4000093D00D3
:1005200004C10F4000000010001BB700A0C10F4025
:1005300055515155ACC10F40DE872804C4C00F404F
:10054000FFF7B2FFFFF7DCFEA3480068A3490840AD
:10055000A14908600846C06820F47F10C8600846BA
:100560000069002008619E48008840F47F609C4933
:1005700008800846408C40F4F06048840846006CCF
:1005800008640846008A4FF20F0108439449088224
:1005900093482030408A4FF67F010843904920312C
:1005A000488217E100218E482030C1828D488E4953
:1005B000096830F821008A49888200208B49086048
:1005C00004E08A480068401C884908608748006841
:1005D0006428F6D34FF6FF7181482030C182802114
:1005E000C18280488249096830F821007C498882AC
:1005F00000207E49086004E07C480068401C7B497C
:1006000008607A4800686428F6D34FF6FF71744892
:100610002030C1824115C18272487649096830F89C
:1006200021006F49888200207049086004E06F480B
:100630000068401C6D4908606C4800686428F6D367
:100640004FF6FF7166482030C1824FF4C071C182FD
:1006500064486949096830F82100614988820020AE
:100660006249086004E061480068401C5F49086016
:100670005E4800686428F6D34FF6FF715848203072
:10068000C18259480068102807D1002056490860E7
:1006900057480068401C5649086053480068401C91
:1006A00011D15348006870B95248006858B952488F
:1006B000006840B90F204C4908604D4908604D4919
:1006C00008604D49086048480068401C07D10F2069
:1006D0004549086046480068401E4549086044484E
:1006E0000068102807D1002041490860414800688F
:1006F000401C404908603E480068401C07D10F205C
:100700003B4908603B480068401E3A490860394848
:100710000068102807D10020364908603648006874
:10072000401C3549086033480068401C07D10F2041
:100730003049086030480068401E2F4908602E4844
:100740000068102808D1002027490860284908605F
:10075000284908602849086027480068401C09D1DA
:100760000F202149086022490860224908600020C2
:10077000214908602148007800F001002049086004
:100780004FF000001949086004E018480068401C58
:100790001649086015480068B0F57A7FF5D3194806
:1007A0000068401C1749086008460068B0F5FA6FF9
:1007B00010D11348006828B90B480068401E0A4948
:1007C000086004E008480068401C074908600020F1
:1007D0000C490860E6E6000000C00240FF0000FF90
:1007E00000C00920040000104C0000105C00001044
:1007F00050000010540000105800001054C0092090
:10080000440000104800001001491820ABBEFEE76C
:100810002600020034080000000000106000000004
:100820000801000094080000600000106002000051
:1008300024010000C0C62D003F000000060000009B
:100840005B0000004F000000660000006D0000002B
:100850007D000000070000007F0000006F00000026
:10086000770000007C000000390000005E000000FE
:10087000790000007100000000000000000000008E
:100880000000000000000000000000000000000068
:040890000000000064
:04000005000001698D
:00000001FF
