:020000040000FA
:10000000800200106901000071010000730100000E
:100010007501000077010000790100000000000078
:100020000000000000000000000000007B01000054
:100030007D010000000000007F0100008101000040
:1000400083010000830100008301000083010000A0
:100050008301000083010000830100008301000090
:100060008301000083010000830100008301000080
:100070008301000083010000830100008301000070
:100080008301000083010000830100008301000060
:100090008301000083010000830100008301000050
:1000A0008301000083010000830100008301000040
:1000B0008301000083010000830100008301000030
:1000C00083010000830100008301000000F002F8BA
:1000D00000F03AF80AA090E8000C82448344AAF1A8
:1000E0000107DA4501D100F02FF8AFF2090EBAE8A6
:1000F0000F0013F0010F18BFFB1A43F0010318475C
:10010000D0070000F0070000103A24BF78C878C17B
:10011000FAD8520724BF30C830C144BF04680C600D
:10012000704700000023002400250026103A28BF55
:1001300078C1FBD8520728BF30C148BF0B60704759
:100140001FB51FBD10B510BD00F0A6F81146FFF792
:10015000F7FF00F04AFB00F0C4F803B4FFF7F2FF2A
:1001600003BC00F0AFFB0000094880470948004786
:10017000FEE7FEE7FEE7FEE7FEE7FEE7FEE7FEE757
:10018000FEE7FEE704480549034A054B70470000B7
:10019000A9040000CD0000008000001080020010C3
:1001A0008000001053EA020C00F069802DE9F04B4A
:1001B0004FF00006002B1FBFB3FA83F503FA05F4D6
:1001C00024FA05F65E4012BF1643B2FA82F502FA2F
:1001D00005F4C5F120051EBF22FA05FC44EA0C0413
:1001E000203556EA044C4FEA144418BF641C4FF003
:1001F00000084FF00009904271EB030C39D300293D
:1002000019BFB1FA81F701FA07F6B0FA80F700FAE0
:1002100007F6C7F120071EBF20FA07FC46EA0C06C6
:100220002037B6FBF4FCA7EB0507103F07F01F0BC8
:10023000CBF120060CFA0BFB2CFA06F644BFB346B2
:100240000026202FA4BF5E464FF0000B5BEA060C91
:1002500008BF4FF0010B19EB0B09ABFB027C48EB1D
:100260000608C01B06FB02CC0BFB03CC71EB0C0198
:10027000C1E70B46024641464846BDE8F08B13B540
:100280004FF000004FF00001AFF30080BDE81C40CC
:100290007047704770477047754600F029F8AE46C2
:1002A00005006946534620F00700854618B020B582
:1002B000FFF768FFBDE820404FF000064FF0000751
:1002C0004FF000084FF0000B21F00701AC46ACE8FE
:1002D000C009ACE8C009ACE8C009ACE8C0098D466B
:1002E00070470446AFF300802046FFF736FF00005A
:1002F000004870471C00001070470000FFFFFFFF20
:100300002DE9F04781480068C0F3016003287CD1E3
:100310007F48006810F0030006D0012833D002287F
:100320005FD003282ED100E000BF78480068C0F3FA
:10033000074000F101044FF002017648D0F8880030
:10034000C0F30E0000F10100A1FB0001724B4FF061
:10035000000CA0FB037901FB039100FB0C1122466A
:1003600063463846FFF71EFF05466C480068C0B27A
:1003700000F1010422464FF000032846FFF712FF68
:10038000674908605DE061480068C0F3074000F11C
:1003900001044FF002015F48D0F88800C0F30E005E
:1003A00000F10100A1FB00105E4A4FF0000CA1FB20
:1003B000027900FB029001FB0C012246634638469D
:1003C000FFF7F0FE054655480068C0B200F1010491
:1003D00022464FF000032846FFF7E4FE504908602C
:1003E0002FE04A480068C0F3074000F101044FF0D5
:1003F00002014848D0F88800C0F30E0000F1010067
:10040000A1FB00124FF4004000E01BE04FF000039E
:10041000A1FB007902FB009001FB03012246384654
:10042000FFF7C0FE05463D480068C0B200F1010478
:1004300022464FF000032846FFF7B4FE3849086013
:1004400000BF2FE03248006810F0030006D00128FA
:1004500010D0022819D0032823D100E000BF2F4874
:100460000068C0B200F101002B49B1FBF0F02C494B
:10047000086016E029480068C0B200F1010029496F
:10048000B1FBF0F0264908600BE024480068C0B2D8
:1004900000F101004FF40041B1FBF0F02049086089
:1004A00000BF00BFBDE8F08720201F490860194841
:1004B000D0F8A00110F0200F05D000BF1A48006846
:1004C00010F0400FFAD00320144908601748114972
:1004D000C1F8A8011648174908604FF001000C49FF
:1004E00008604FF00400A1F10401086012481349AC
:1004F000086040F201100749C1F8C80108460068C9
:1005000020F4704040F480400860704788C00F407D
:100510000CC10F4000C00F4000093D0004C10F4056
:1005200000000010001BB700A0C10F4055515155ED
:1005300055545554ACC10F40DEF7EFEFC4C00F4027
:10054000D8484079401CD7494871084640793A2834
:1005500005D13020487108460079401C0871D14807
:100560000079362804D13020CE4908710120704727
:100570000020FCE7CB484078401CCA494870084638
:1005800040783A2805D13020487008460078401C51
:100590000870C4480078362802D13020C14908705C
:1005A0007047C048C078401CBE49C8700846C07833
:1005B0003A2805D13020C87008468078401C8870E1
:1005C000B8488078362805D13020B6498870C87080
:1005D000012070470020FCE7002100E0491C814217
:1005E000FCD370474FF0F060AF49C8614FF0006036
:1005F000C8614000C861704700B5FFF7F3FFAB4822
:100600000068A94948614FF0006088614000886136
:100610001920FFF7E1FF4FF08050A349C86100BDEA
:1006200000B5A348007800F0F000A0490860084633
:100630000088C0040860FFF7DFFF9D48007800F0E5
:100640000F009A49086008460088C0050860FFF757
:10065000D3FF4FF47A70FFF7BFFF00BD10B504461B
:1006600000230EE0E05C92490860FFF7D9FF5B1CB5
:10067000022B01D0042B04D13A208D490860FFF7EA
:10068000CFFFE05C0028EDD110BD00B5FFF7AAFF59
:1006900086480068844948614FF00060C8614000A6
:1006A00088611920FFF798FF4FF080507E49C8619C
:1006B00000BD00B57E48007800F0F0007B4908607E
:1006C00008460088C0040860FFF7DFFF784800781C
:1006D00000F00F007549086008460088C0050860F2
:1006E000FFF7D3FF4FF47A70FFF776FF00BD00B538
:1006F00001206F490860FFF7DCFF42F21070FFF73E
:100700006BFF00BD00B56B48C0686B490840694984
:10071000C8606548006840F0F060634908600846BA
:10072000006840F0006008600846006840F08050B3
:100730000860FFF757FF4FF44860FFF74DFF4FF099
:10074000C0705A490860FFF7A0FF47F23050FFF72A
:1007500043FF4FF0C07055490860FFF796FF47F21E
:100760003050FFF739FF4FF0C07050490860FFF775
:100770008CFF47F23050FFF72FFF4FF080704B494E
:100780000860FFF782FF47F23050FFF725FF28206F
:1007900047490860FFF78DFF47F23050FFF71CFF15
:1007A0000C2043490860FFF784FF4FF44870FFF7BF
:1007B00013FF06203E490860FFF77BFF4FF44870A7
:1007C000FFF70AFF01203A490860FFF772FF42F283
:1007D0001070FFF701FF802035490860FFF769FFBF
:1007E0004FF44870FFF7F8FE00BDFFF75DFEFFF71E
:1007F00087FDFFF787FF80202D490860FFF759FF2D
:100800004FF44870FFF7E8FE02204FF040214860A7
:100810000020086740F2E73088610220486120200C
:10082000C86340F6B730C8600120486039E023480B
:100830000068401C2149086008460068052801D16D
:10084000002008604FF04020C06B10F0010F28D04E
:1008500002204FF0402148600020086740F2E73056
:100860008861022048612020C86340F6B730C86024
:1008700001204860FFF764FE1149086008460068DF
:10088000012809D1FFF78DFE0D4908600846006870
:10089000012801D1FFF76EFEFFF729FF0148FFF79E
:1008A000DDFEC4E70C00001000C0092008000010A5
:1008B0000400001000C00240FF3F00FC14000010C4
:1008C0001800001001491820ABBEFEE72600020008
:1008D000F0080000000000101C00000008010000EB
:1008E0000C0900001C00001064020000240100003C
:1008F000C0C62D0000000000000000003030303085
:0C0900003030000000000000000000008B
:04000005000001698D
:00000001FF
