:020000040000FA
:1000000060030010A1010000A9010000AB01000085
:10001000AD010000AF010000B101000000000000D0
:10002000000000000000000000000000B30100001C
:10003000B501000000000000B7010000B901000098
:10004000BB010000BB010000BB010000BB010000C0
:10005000BB010000BB010000BB010000BB010000B0
:10006000BB010000BB010000BB010000BB010000A0
:10007000BB010000BB010000BB010000BB01000090
:10008000BB010000BB010000BB010000BB01000080
:10009000BB010000BB010000BB010000BB01000070
:1000A000BB010000BB010000BB010000BB01000060
:1000B000BB010000BB010000BB010000BB01000050
:1000C000BB010000BB010000BB01000000F002F812
:1000D00000F03CF80AA090E8000C82448344AAF1A6
:1000E0000107DA4501D100F031F8AFF2090EBAE8A4
:1000F0000F0013F0010F18BFFB1A43F0010318475C
:10010000F007000010080000103A24BF78C878C13A
:10011000FAD8520724BF30C830C144BF04680C600D
:10012000704700000023002400250026103A28BF55
:1001300078C1FBD8520728BF30C148BF0B60704759
:100140001FB500F0A6FB1FBD10B510BD00F0AAFB47
:100150001146FFF7F5FF00F01DFB00F0B9F803B4FE
:10016000FFF7F2FF03BC00F0BDF800000B49D1F827
:1001700000C04A685CF8043B1068184442F8040B5D
:100180008C4528BFA1F1DC0C8A4228BFA1F1DC021A
:10019000C1F800C04A6020F000407047F80000102D
:1001A0000948804709480047FEE7FEE7FEE7FEE70B
:1001B000FEE7FEE7FEE7FEE7FEE7FEE70448054947
:1001C000034A054B70470000A9040000CD00000061
:1001D00060010010600300106001001053EA020C7F
:1001E00000F069802DE9F04B4FF00006002B1FBF97
:1001F000B3FA83F503FA05F424FA05F65E4012BF5C
:100200001643B2FA82F502FA05F4C5F120051EBFC5
:1002100022FA05FC44EA0C04203556EA044C4FEA65
:10022000144418BF641C4FF000084FF000099042BE
:1002300071EB030C39D3002919BFB1FA81F701FA28
:1002400007F6B0FA80F700FA07F6C7F120071EBFDD
:1002500020FA07FC46EA0C062037B6FBF4FCA7EBB5
:100260000507103F07F01F0BCBF120060CFA0BFB24
:100270002CFA06F644BFB3460026202FA4BF5E46E4
:100280004FF0000B5BEA060C08BF4FF0010B19EBB7
:100290000B09ABFB027C48EB0608C01B06FB02CC3B
:1002A0000BFB03CC71EB0C01C1E70B460246414648
:1002B0004846BDE8F08B13B54FF000004FF0000149
:1002C000AFF30080BDE81C4070477047704770472F
:1002D0000446AFF300802046FFF741FF0048704717
:1002E0000001001001491820ABBEFEE72600020005
:1002F000704700000000000000000000FFFFFFFF4B
:100300002DE9F04781480068C0F3016003287CD1E3
:100310007F48006810F0030006D0012833D002287F
:100320005FD003282ED100E000BF78480068C0F3FA
:10033000074000F101044FF002017648D0F8880030
:10034000C0F30E0000F10100A1FB0001724B4FF061
:10035000000CA0FB037901FB039100FB0C1122466A
:1003600063463846FFF73AFF05466C480068C0B25E
:1003700000F1010422464FF000032846FFF72EFF4C
:10038000674908605DE061480068C0F3074000F11C
:1003900001044FF002015F48D0F88800C0F30E005E
:1003A00000F10100A1FB00105E4A4FF0000CA1FB20
:1003B000027900FB029001FB0C012246634638469D
:1003C000FFF70CFF054655480068C0B200F1010474
:1003D00022464FF000032846FFF700FF504908600F
:1003E0002FE04A480068C0F3074000F101044FF0D5
:1003F00002014848D0F88800C0F30E0000F1010067
:10040000A1FB00124FF4004000E01BE04FF000039E
:10041000A1FB007902FB009001FB03012246384654
:10042000FFF7DCFE05463D480068C0B200F101045C
:1004300022464FF000032846FFF7D0FE38490860F7
:1004400000BF2FE03248006810F0030006D00128FA
:1004500010D0022819D0032823D100E000BF2F4874
:100460000068C0B200F101002B49B1FBF0F02C494B
:10047000086016E029480068C0B200F1010029496F
:10048000B1FBF0F0264908600BE024480068C0B2D8
:1004900000F101004FF40041B1FBF0F02049086089
:1004A00000BF00BFBDE8F08720201F490860194841
:1004B000D0F8A00110F0200F05D000BF1A48006846
:1004C00010F0400FFAD00320144908601748114972
:1004D000C1F8A8011648174908604FF001000C49FF
:1004E00008604FF00400A1F10401086012481349AC
:1004F000086040F201100749C1F8C80108460068C9
:1005000020F4704040F480400860704788C00F407D
:100510000CC10F4000C00F4000093D0004C10F4056
:1005200000000010001BB700A0C10F4055515155ED
:1005300055545554ACC10F40DEF7EFEFC4C00F4027
:10054000002100E0491C8142FCD370476FF0FC5051
:10055000B94908614FF0F060C8614FF00060C861B0
:100560004000C861704700B56FF0FC50B2490861A7
:10057000FFF7ECFFB1480068AF4948614FF00060F9
:10058000C861400088611920FFF7DAFF4FF0805002
:10059000A949C86100BD00B56FF0FC50A6490861CB
:1005A000A748007800F0F000A449086008460088D9
:1005B000C0040860FFF7D7FFA148007800F00F00E3
:1005C0009E49086008460088C0050860FFF7CBFF19
:1005D0004FF47A70FFF7B4FF00BD00B56FF0FC5028
:1005E00095490861FFF7B2FF944800689249486155
:1005F0004FF000608861400088611920FFF7A0FF7C
:100600004FF080508C49C86100BD00B56FF0FC50C0
:10061000894908618A48007800F0F000874908603D
:1006200008460088C0040860FFF7D7FF84480078B8
:1006300000F00F008149086008460088C005086086
:10064000FFF7CBFF4FF47A70FFF77AFF00BD10B5CC
:10065000044600236FF0FC50774908611AE0E05C23
:1006600077490860FFF7D1FF5B1C102B04D1C02035
:1006700073490860FFF78FFF00207249086004E0AB
:1006800070480068401C6F4908606E4800686E49F9
:100690008842F5D3E05C0028E1D110BD00B56B487D
:1006A00040686B490840694948606FF0FC506249F6
:1006B0000861664800690020644908615E48006876
:1006C00040F0F0605C4908600846006840F0006057
:1006D00008600846006840F080500860FFF736FF69
:1006E0004FF44860FFF72CFF4FF0C070534908608B
:1006F000FFF739FF40F6B830FFF722FF4FF0C07028
:100700004E490860FFF72FFF40F6B830FFF718FF9B
:100710004FF0C07049490860FFF725FF40F6B83038
:10072000FFF70EFF4FF0807044490860FFF71BFF92
:100730004FF47A70FFF704FF282041490860FFF763
:100740002AFF40F6B830FFF7FBFE0C203C4908605A
:10075000FFF721FF4FF44870FFF7F2FE06203849FB
:100760000860FFF718FF4FF44870FFF7E9FE01201B
:1007700033490860FFF70FFF4FF47A70FFF7E0FE90
:1007800080202F490860FFF706FF4FF44870FFF7FD
:10079000D7FE00BD86B02FA30FCBCDE90423CDE952
:1007A0000201FFF781FEFFF7ABFDFFF777FF802027
:1007B00023490860FFF7EFFE4FF44870FFF7C0FED3
:1007C00002A8FFF744FF27E01B48406D10F4805F4C
:1007D00022D1FFF7CBFC23490860084600680721B7
:1007E000B0FBF1F201FB12001E49086008460068E8
:1007F00008B9012008601B4800783030C0B2019071
:10080000C0200F490860FFF7C6FE4FF44870FFF79D
:1008100097FE01A8FFF71BFFD6E700B56FF0FC506D
:1008200005490861012006490860FFF7B4FE4FF44E
:100830009670FFF785FE00BD00C00920080000107B
:100840000400001018000010A086010000C0024043
:10085000FF3F00FC52414E444F4D204E554D424506
:10086000523A00000C0000100B4910B5A1F17C02B7
:100870000A4CC2E93712372106E000EB104342F878
:100880002130074B00FB03400B1EA1F10101F4DCFA
:1008900010BD0120E8E7000098000010E119D666BD
:1008A000CD0D01007546FFF719FDAE4605006946FE
:1008B000534620F00700854618B020B5FFF77EFCB0
:1008C000BDE820404FF000064FF000074FF0000851
:1008D0004FF0000B21F00701AC46ACE8C009ACE8D2
:1008E000C009ACE8C009ACE8C0098D4670470000FB
:1008F00010090000000000101C00000008010000AA
:100900002C0900001C00001044030000240100001A
:10091000C0C62D0000000000000000000000000024
:0C092000000000000000000000000000CB
:04000005000001A155
:00000001FF
