:020000040000FA
:1000000010030010850100008D0100008F01000029
:100010009101000093010000950100000000000024
:100020000000000000000000000000009701000038
:1000300099010000000000009B0100009D010000EC
:100040009F0100009F0100009F0100009F01000030
:100050009F0100009F0100009F0100009F01000020
:100060009F0100009F0100009F0100009F01000010
:100070009F0100009F0100009F0100009F01000000
:100080009F0100009F0100009F0100009F010000F0
:100090009F010000170A00009F0100009F0100005F
:1000A0009F0100009F0100009F0100009F010000D0
:1000B0009F0100009F0100009F0100009F010000C0
:1000C0009F0100009F0100009F01000000F002F866
:1000D00000F048F80AA090E8000C82448344AAF19A
:1000E0000107DA4501D100F03DF8AFF2090EBAE898
:1000F0000F0013F0010F18BFFB1A43F0010318475C
:100100000810000028100000103A24BF78C878C1F9
:10011000FAD8520724BF30C830C144BF04680C600D
:10012000704700000023002400250026103A28BF55
:1001300078C1FBD8520728BF30C148BF0B60704759
:10014000642900F0F985002070471FB500F066FFB4
:1001500004000020002100F0C1FF401C60601FBDB2
:1001600010B510BD00F035FF1146FFF7EEFF00F0AF
:1001700023FB00F065FF03B4FFF7F2FF03BC00F0C0
:10018000A5FF00000948804709480047FEE7FEE751
:10019000FEE7FEE7FEE7FEE7FEE7FEE7FEE7FEE737
:1001A00004480549034A054B70470000A9040000B4
:1001B000CD0000001001001010030010100100100D
:1001C00053EA020C00F069802DE9F04B4FF0000675
:1001D000002B1FBFB3FA83F503FA05F424FA05F6E2
:1001E0005E4012BF1643B2FA82F502FA05F4C5F179
:1001F00020051EBF22FA05FC44EA0C04203556EA0D
:10020000044C4FEA144418BF641C4FF000084FF030
:100210000009904271EB030C39D3002919BFB1FAE0
:1002200081F701FA07F6B0FA80F700FA07F6C7F18E
:1002300020071EBF20FA07FC46EA0C062037B6FB53
:10024000F4FCA7EB0507103F07F01F0BCBF12006CE
:100250000CFA0BFB2CFA06F644BFB3460026202FFF
:10026000A4BF5E464FF0000B5BEA060C08BF4FF0E0
:10027000010B19EB0B09ABFB027C48EB0608C01B1A
:1002800006FB02CC0BFB03CC71EB0C01C1E70B4668
:10029000024641464846BDE8F08B13B54FF00000DA
:1002A0004FF00001AFF30080BDE81C407047000034
:1002B0000FB41CB5084B06AA7B446946009005980C
:1002C00000F0DBFD04460020694600F0E9FD204611
:1002D0001CBC5DF814FB0000E50B000070B5064681
:1002E00000F066FD0468054630460A22002100F051
:1002F000DCFD2C6070BD704770477047FFFFFFFF4B
:100300002DE9F04781480068C0F3016003287CD1E3
:100310007F48006810F0030006D0012833D002287F
:100320005FD003282ED100E000BF78480068C0F3FA
:10033000074000F101044FF002017648D0F8880030
:10034000C0F30E0000F10100A1FB0001724B4FF061
:10035000000CA0FB037901FB039100FB0C1122466A
:1003600063463846FFF72CFF05466C480068C0B26C
:1003700000F1010422464FF000032846FFF720FF5A
:10038000674908605DE061480068C0F3074000F11C
:1003900001044FF002015F48D0F88800C0F30E005E
:1003A00000F10100A1FB00105E4A4FF0000CA1FB20
:1003B000027900FB029001FB0C012246634638469D
:1003C000FFF7FEFE054655480068C0B200F1010483
:1003D00022464FF000032846FFF7F2FE504908601E
:1003E0002FE04A480068C0F3074000F101044FF0D5
:1003F00002014848D0F88800C0F30E0000F1010067
:10040000A1FB00124FF4004000E01BE04FF000039E
:10041000A1FB007902FB009001FB03012246384654
:10042000FFF7CEFE05463D480068C0B200F101046A
:1004300022464FF000032846FFF7C2FE3849086005
:1004400000BF2FE03248006810F0030006D00128FA
:1004500010D0022819D0032823D100E000BF2F4874
:100460000068C0B200F101002B49B1FBF0F02C494B
:10047000086016E029480068C0B200F1010029496F
:10048000B1FBF0F0264908600BE024480068C0B2D8
:1004900000F101004FF40041B1FBF0F02049086089
:1004A00000BF00BFBDE8F08720201F490860194841
:1004B000D0F8A00110F0200F05D000BF1A48006846
:1004C00010F0400FFAD00320144908601748114972
:1004D000C1F8A8011648174908604FF001000C49FF
:1004E00008604FF00400A1F10401086012481349AC
:1004F000086040F201100749C1F8C80108460068C9
:1005000020F4704040F480400860704788C00F407D
:100510000CC10F4000C00F4000093D0004C10F4056
:1005200000000010001BB700A0C10F4055515155ED
:1005300055545554ACC10F40DEF7EFEFC4C00F4027
:10054000002100E0491C8142FCD370476FF0FC5051
:10055000FB4908614FF0F060C8614FF00060C8616E
:100560004000C861704700B56FF0FC50F449086165
:10057000FFF7ECFFF3480068F14948614FF0006075
:10058000C861400088611920FFF7DAFF4FF0805002
:10059000EB49C86100BD00B56FF0FC50E849086147
:1005A000E948007800F0F000E64908600846008855
:1005B000C0040860FFF7D7FFE348007800F00F00A1
:1005C000E049086008460088C0050860FFF7CBFFD7
:1005D0004FF47A70FFF7B4FF00BD00B56FF0FC5028
:1005E000D7490861FFF7B2FFD6480068D44948618F
:1005F0004FF000608861400088611920FFF7A0FF7C
:100600004FF08050CE49C86100BD00B56FF0FC507E
:10061000CB490861CC48007800F0F000C949086077
:1006200008460088C0040860FFF7D7FFC648007876
:1006300000F00F00C349086008460088C005086044
:10064000FFF7CBFF4FF47A70FFF77AFF00BD00B5DC
:100650006FF0FC50BA4908610120BB490860FFF700
:100660009AFF4FF49670FFF76BFF00BD00B503468D
:10067000FFF7EDFF0020B549086014E0B3480068BB
:10068000185CB1490860FFF7C0FFB0480068401C23
:10069000AE49086008460068102804D1C020AA4965
:1006A0000860FFF778FFA9480068185C0028E5D1CA
:1006B000A749086004E0A6480068401CA4490860F7
:1006C000A3480068A3498842F5D300BD00B5A248FD
:1006D0004068A2490840A04948606FF0FC50984922
:1006E00008610846006840F0F0600860084600684D
:1006F00040F0006008600846006840F080500860E4
:10070000FFF724FF4FF44860FFF71AFF4FF0C07067
:100710008C490860FFF727FF40F6B830FFF710FF5D
:100720004FF0C07087490860FFF71DFF40F6B830F2
:10073000FFF706FF4FF0C07082490860FFF713FF14
:1007400040F6B830FFF7FCFE4FF080707D4908603E
:10075000FFF709FF4FF47A70FFF7F2FE28207A497D
:100760000860FFF718FF40F6B830FFF7E9FE0C20ED
:1007700075490860FFF70FFF4FF44870FFF7E0FE80
:10078000062071490860FFF706FF4FF44870FFF735
:10079000D7FE01206C490860FFF7FDFE4FF47A7028
:1007A000FFF7CEFE802068490860FFF7F4FE4FF4A3
:1007B0004870FFF7C5FE00BD10B5FFF775FEFFF7E7
:1007C0009FFDFFF783FF6FF47F605D49086162481A
:1007D000006820F47F60604908605948006840F470
:1007E0007060574908600846406940F4706048618D
:1007F0005BA0FFF73BFF152000F036FAF0205D49C3
:10080000086007E05C480068012803D100205B49CC
:10081000086000E0F6E700BF002057490860FFF7D6
:1008200016FF4FF46170FFF78BFE1AE004E05248A8
:100830000068012800D100E0F9E700BF50480068D7
:10084000401C4F49086000204B490860FFF7FFFE3D
:1008500080203D490860FFF79EFE4FF44870FFF787
:100860006FFE47480068474909688842DED346A0C2
:10087000FFF7FCFE464847A102684748FFF718FD0E
:10088000464908604448FFF7F1FE00203A490860F5
:100890003B49086001203949086000204049086050
:1008A0002FA0FFF7E3FE152000F0DEF9F02031491C
:1008B000086007E030480068012803D100202F4974
:1008C000086000E0F6E700BF00202B490860FFF752
:1008D000BEFE4FF46170FFF733FE1AE004E02648D5
:1008E0000068012800D100E0F9E700BF2448006853
:1008F000401C2349086000201F490860FFF7A7FE3D
:10090000802011490860FFF746FE4FF44870FFF75A
:1009100017FE1B4800681B4909688842DED321A0E6
:10092000FFF7A4FE1E48006842421AA11A48FFF7CA
:10093000BFFC1A4908601848FFF798FE002010BD58
:1009400000C009207C000010780000100400001096
:100950008C000010A086010000C00240FF3F00FC98
:10096000454E5445522056414C5545204F46204E49
:1009700000000000908002400800001010000010ED
:100980000C0000109000001053554D3A000000007C
:100990001400001025642500A0000010980000102D
:1009A00018000010444946464552454E43453A001A
:1009B0006FF0F000B249086108464069B14908602B
:1009C0000846007800F0F00008600846006808B3A8
:1009D0000120AD490860AB480068102803D1002011
:1009E000AA49086016E0A7480068202803D1012022
:1009F000A64908600EE0A3480068402803D1022001
:100A0000A249086006E09F480068802802D10320C0
:100A10009E490860704710B500209D49086004E0B9
:100A20009B480068401C9A49086099480068B0F5E6
:100A30007A7FF5D397480068924908606FF4706038
:100A40008F4908614FF47060C8614FF0000092490F
:100A50000860C7E09048006820B94FF480708F4963
:100A6000086017E08C480068012803D140028B49D8
:100A700008600FE088480068022803D140028749D7
:100A8000086007E084480068032803D14FF4006041
:100A9000824908606FF47060794908617F48006896
:100AA0004861002078490860FFF782FF75480078A8
:100AB00000F0F0007349086073480068012875D1A0
:100AC00077487549096800EB01107049096850F8CA
:100AD00021006B284FD10120724908600020724923
:100AE00008607248006880B97148FFF7F7FB7149E8
:100AF000096808446F4908606D48FFF7EFFB6E49CD
:100B00000968401A6C49086007E0002067490860DE
:100B10006748FFF7E3FB6949086000205C4908600B
:100B200009E0202062495A4A1268885458480068EF
:100B3000401C57490860564800680428F1D36FF4F8
:100B400070604F490861C0434861F0205C4908600B
:100B50004FF000005B49086004E05A480068401C00
:100B6000584908605748006848F6B8018842F4D3ED
:100B7000FFF76DFD10BD4A484749096800EB0110B9
:100B80004249096850F82100632810D1464800689E
:100B9000401E4549086020214548434A1268815457
:100BA000FFF755FD4248FFF761FD20E015E03C48A6
:100BB0003949096800EB01103449096810F821002F
:100BC0003B49394A126888540846FFF74FFD3648BA
:100BD0000068401C3449086009E02F480068401C48
:100BE0002D4908602C4800680428FFF633AF00BF89
:100BF0006FF4706022490861C0434861F0203049B9
:100C0000086000BFB6E700B503466FF0FC501C4912
:100C100008612D48036000682C490860FFF7F5FC67
:100C200000202849086004E026480068401C254947
:100C30000860244800684CF250318842F4D300BD6B
:100C400000B56FF0FC500E490861C820FFF778FC32
:100C50001349114A126801EB02110C4A126811F88B
:100C60002200FFF7D0FF00BD00F01F0201219140DC
:100C700042094FF0E02303EB8202C2F800117047F3
:100C800000C0092080000010880000106C000010D7
:100C900004000010848002407000001074000010F6
:100CA0002C0000100800001094000010100000102C
:100CB000A500001014000010180000109000001093
:100CC0008C8002408C00001084000010780000101E
:100CD0002DE9F0410E460446002020622046E168DE
:100CE000884730B3252805D0D4E901219047206AF0
:100CF000401CF2E7E168204600278847050018D02D
:100D0000A5F14100192802D820354FF4006732467A
:100D1000294620462760FFF713FA40B1012804D086
:100D2000F61D26F007060836D8E7361DD6E7284612
:100D3000DAE7206ABDE8F0812DE9F041064600249B
:100D400010687529314616A511D0AFF30080002830
:100D500003DAC0F1000013A507E031688A0701D566
:100D600011A502E0490704D510A5012401E0AFF365
:100D7000008000210A2306F1240707E0B0FBF3F20C
:100D800003FB1200303078541046491C0028F5D17E
:100D900023462A463046BDE8F04100F00DB8000079
:100DA000000000002D0000002B00000020000000CB
:100DB00000487047AC0000102DE9F0470D469946F9
:100DC0009246044600F124080168880604D5E069CB
:100DD00021F01001216000E00120A84202DDA0EB1B
:100DE000050700E00027A16907EB050202EB0900F7
:100DF000A1EB0000A0612078C00602D42046AFF32A
:100E00000080002608E0D4E901211AF80600904786
:100E1000206A401C761C20624E45F4DB2078C00618
:100E20000AD52046AFF3008006E0D4E90121302046
:100E30009047206A401C2062381EA7F10107F4DCAD
:100E400007E0D4E9012118F805009047206A401C0A
:100E50002062281EA5F10105F3DC2046AFF30080D7
:100E60002078000602D50220BDE8F0870120FBE7CC
:100E700001694A1C02610878704700B58FB0CDE95E
:100E800001310021059105497944CDE9031011464E
:100E90006846FFF71DFF0FB000BD0000E5FFFFFF34
:100EA0000A6802F8010B0A6070472DE9F047914685
:100EB0000F4680460446002614F8015B2DB100F071
:100EC00031F80068405DC007F6D12B2D02D02D2DE2
:100ED00018D0641E4A463946204600F02BF827B148
:100EE0003968A14201D1C7F800804FF002047105B2
:100EF0000BD54042002803DDFFF75AFF0460A0072E
:100F0000BDE8F08746F48066E4E70028F8DAFFF7EA
:100F10004FFF04606FF00040F2E7000000487047A8
:100F2000AC00001010B500F079F8001D10BD00BF36
:100F3000AD0100002DE9F05F824615468B46002783
:100F40000AF10104B9460078302801D09DB113E0C0
:100F500014F8010B0127782803D0582801D045B197
:100F60000AE00DB1102D07D1002714F8010B102550
:100F700002E0082500E00A250026B0460EE005FB49
:100F8000080005FB06F101271FFA80F801EB104667
:100F9000B6F5803F00D3B94614F8010B294600F09E
:100FA00041F80028EBDABBF1000F05D00FB1641E49
:100FB00000E05446CBF80040B9F1000F06D0FFF72F
:100FC000F7FE02210160C81EBDE8F09F48EA064016
:100FD000FAE77546FFF7A2FFAE460500694653469D
:100FE00020F00700854618B020B5FFF7D9F8BDE816
:100FF00020404FF000064FF000074FF000084FF080
:10100000000B21F00701AC46ACE8C009ACE8C00910
:10101000ACE8C009ACE8C0098D467047004870478D
:10102000CC0000103A2800D2303820F02002412AAB
:1010300001D3A2F13700884201D34FF0FF3070474F
:101040000446AFF300802046FFF795F84FF0013CCF
:1010500050F8042B51F8043B9A4221D1A2EB0C0327
:10106000934313EACC1317D150F8042B51F8043BE7
:101070009A4215D1A2EB0C03934313EACC130BD184
:1010800050F8042B51F8043B9A4209D1A2EB0C030F
:10109000934313EACC13DBD04FF00000704700BF3E
:1010A000D01A01BAB1FA81F101F0180122FA01F067
:1010B000CB40C1F12001DBB2C0B2C01A2CFA01F35F
:1010C000D11A914311EAC311E6D1704701491820A2
:1010D000ABBEFEE7260002007047000010B50029F5
:1010E0000AD00878002807D005487844FFF7AEFFFB
:1010F000002801D0002010BD0248784410BD000037
:101100003E00000036000000381200000000001011
:10111000AC00000008010000E4120000AC00001068
:1011200064020000240100001001000043000000E0
:10113000F8FFFFFF004040404040404040404141F8
:10114000414141404040404040404040404040409C
:101150004040404040050202020202020202020236
:101160000202020202202020202020202020200233
:1011700002020202020290909090909010101010C3
:10118000101010101010101010101010101010105F
:1011900002020202020288888888888808080808F3
:1011A00008080808080808080808080808080808BF
:1011B00002020202400000000000000000000000E7
:1011C000000000000000000000000000000000001F
:1011D000000000000000000000000000000000000F
:1011E00000000000000000000000000000000000FF
:1011F00000000000000000000000000000000000EF
:1012000000000000000000000000000000000000DE
:1012100000000000000000000000000000000000CE
:1012200000000000000000000000000000000000BE
:101230000000000000000000C0C62D0000000000FB
:10124000000000000000000001000000000000009D
:101250000000000000010000000200000004000087
:1012600000080000300000003100000032000000E3
:10127000330000003400000035000000360000009C
:101280003700000038000000390000006300000053
:101290006B000000000000000000000000000000E3
:1012A000000000000000000000000000000000003E
:1012B000000000000000000000000000000000002E
:1012C000000000000000000000000000000000001E
:1012D000000000000000000000000000000000000E
:0412E000000000000A
:040000050000018571
:00000001FF
